:020000040800F2
:1000000060360120B1010008B9010008B7020008FC
:10001000BD010008BF010008C10100080000000088
:10002000000000000000000000000000C301000804
:10003000C50100080000000003020008A55B0008DD
:10004000CB010008CB010008CB0100085952000881
:10005000CB010008CB01000825300008CB010008C7
:10006000CB010008DF300008CB010008CB010008FD
:10007000CB010008CB010008CB010008CB01000830
:10008000CB010008252E0008CB010008CB01000899
:10009000CB010008CB010008CB010008FD300008AF
:1000A000CB010008CB010008CB010008CB01000800
:1000B000CB010008715D0008CB010008CB010008EE
:1000C000CB010008CB010008CB010008CB010008E0
:1000D000CB010008CB010008CB010008CB010008D0
:1000E00051300008CB010008CB010008CB0100080B
:1000F000CB010008CB010008CB010008CB010008B0
:10010000CB010008CB010008CB010008CB0100089F
:10011000CB010008CB010008CB010008CB0100088F
:10012000CB010008CB010008CB010008CB0100087F
:10013000CB010008CB010008CB010008CB0100086F
:10014000CB010008CB010008CB010008CB0100085F
:10015000CB010008CB010008CB010008CB0100084F
:10016000CB010008CB010008CB010008CB0100083F
:10017000CB010008CB010008CB010008CB0100082F
:10018000CB010008CB010008CB010008CB0100081F
:10019000CB010008CB010008DFF810D000F0B2FF5F
:1001A000004800478D270008AFF30080603601202B
:1001B0000648804706480047FEE7FEE7FEE7FEE701
:1001C000FEE7FEE7FEE7FEE7FEE7FEE7795C0008F4
:1001D00099010008EFF3108072B6704780F3108821
:1001E0007047434A1368012B04D04FF0010313609A
:1001F000404A1060404A116040484FF08051016011
:100200007047EFF3108272B63948016851B34FF06E
:10021000000101603748016891B1EFF309811EF0D8
:10022000100F08BF21ED108B21E9F00F4FF00004F3
:100230001EF0100F08BF012441F8044D0068016052
:100240002D490968096808C9B1E8F00F002B18BFEB
:10025000B1EC108B81F309884EF0100E002B18BF03
:100260002EF0100E82F310884EF0040E70472249D3
:100270000860EFF3148222F0040282F314881D490F
:100280004FF0000008601A494FF0010008601C4858
:100290004FF47F01D0F8002041EA020101601748C5
:1002A0004FF08051016017480068006880F30888AB
:1002B00061B662B670471EF0040F0CBFEFF3088002
:1002C000EFF3098020E9F00F40F804ED40F804ED69
:1002D0001EF0040F0CBF80F3088880F3098800B576
:1002E00014F02CFC5DF804EB4EF0040E7047000097
:1002F000C4040020BC040020C004002004ED00E081
:1003000020ED00E008ED00E02DE9F8430121E020B8
:1003100004F034FB0120ADF800000224DFF87882FD
:100320008DF8024010258DF803506946404603F0D1
:10033000ABF901221146404603F046FA6603ADF8D8
:1003400000608DF802402820944F8DF80300694624
:10035000384603F099F93146384603F028FA314619
:10036000384603F024FA2603ADF800608DF8024009
:100370008DF803506946404603F086F90022314665
:10038000404603F021FAE602ADF800608DF8024025
:100390008DF803506946404603F076F90022314655
:1003A000404603F011FA4020ADF800008DF80240FD
:1003B00004207B4C8DF803006946204603F064F965
:1003C0004021204603F0F3F94021204603F0EFF9E5
:1003D000BDE8F8833EB50121212004F0CFFA0621C3
:1003E000032003F017F8402002F0AEFE4020002466
:1003F00000908DF8044008208DF8050001258DF847
:100400000650684602F0BAFE17208DF808008DF8F5
:1004100009408DF80A408DF80B5002A804F0DCF872
:100420003EBD1CB5402002F08FFE40200090002011
:100430008DF8040008218DF805108DF80600684637
:1004400002F09CFE1CBD704770470020704770474B
:10045000704770477047012251034F4803F0B4B909
:1004600000224FF400514C4803F0AEB901221103B1
:10047000494803F0A9B900224FF48051464803F0DF
:10048000A3B94021464803F092B93DE7F8B500F022
:10049000CBFB0121E02004F071FA0224ADF800400A
:1004A0003D4E8DF8024010258DF8035069463046C8
:1004B00003F0EAF800220221304603F085F9042017
:1004C000ADF800008DF802408DF8035069463046C3
:1004D00003F0DAF800220421304603F075F9082011
:1004E000ADF800008DF8024000208DF80300694649
:1004F000304603F0C9F80120ADF800008DF8024045
:100500008DF803506946304603F0BEF80022012101
:10051000304603F059F9F8BDF8B50121E02004F0A8
:100520002DFA0120ADF8000002241B4F8DF8024087
:1005300010258DF803506946384603F0A5F80122CE
:100540001146384603F040F92603ADF800608DF8F7
:1005500002408DF803506946384603F095F80022B2
:100560003146384603F030F9E002ADF800008DF86E
:1005700002408DF803506946384603F085F8402064
:10058000ADF800008DF8024004208DF803006946A4
:10059000034803F079F8F8BD001C01400018014041
:1005A0000014014070470120704710B55D4CA260F7
:1005B000C4E90330217510BD2DE9F0410D46064612
:1005C000FFF749FF18F028FD574F00220121384658
:1005D00003F0FAF8002403E0305D00F04FF9641CEA
:1005E000AC42F9D301221146384603F0EDF8BDE8DC
:1005F000F0414FF47A700AF0EFBF70B5144602462E
:1006000048481D4689B2C0E900431046FFF7D4FFB1
:10061000002C05D02846A446BDE870400021604764
:1006200070BD2DE9F047DFF804910D460646002421
:100630004FF480484EF660274146484603F0B7F82D
:1006400010B9641CBC42F7D3BC4206D338A005F0F5
:100650008BFE6FF00E00BDE8F087334F00220121C2
:10066000384603F0B1F8002404E0002000F006F959
:100670003055641CAC42F8D301221146384603F0D1
:10068000A3F80020E7E77CB54FF48041274803F04A
:100690008EF8D8B1244E00220121304603F094F8A0
:1006A00000246D46002000F0E9F82855641C052C54
:1006B000F8D301221146304603F086F89DF8000079
:1006C000042803D19DF80400002801D06FF00A002F
:1006D0007CBD00214FF48062084600F0B1BA70B5CD
:1006E00000F0ABF81448002505704FF480410F4826
:1006F00003F05DF8002810D00A4C217D2069FFF737
:1007000090FFD4E90220002A07D0A5600021E5600F
:100710009047E068007C0028EFD170BD00B1012057
:1007200000F0C4B8D8210120001C0140001801408D
:100730006572720D0A0000002507002010B509F04F
:1007400085FC09F0A7FCBDE8104009F098BC2DE934
:10075000F0414548454F01250078454C4FF400567F
:10076000032810D1607806280DD26078052805D1BD
:1007700000223146384603F027F825706078401C87
:100780006070BDE8F081E07810B1E078401E18E0BC
:10079000207850B1FFF71EFE01223146384603F0A3
:1007A00013F8A57000202070EBE7324D0121284698
:1007B00003F008F8FFF7C2FF0121284603F000F814
:1007C0000420E070DDE710B5044629488178B1B116
:1007D0000021817002E00178641E09B90A2CFAD860
:1007E000FFF71FFE00224FF40051204802F0ECFFFB
:1007F000402002F0A9FC0A2C01D8012010BD0020E5
:1008000010BD10B5402002F0A5FC002814D04020F7
:1008100002F09AFC4021184802F0C9FF01280BD1D0
:1008200013490870FFF7FDFDBDE8104000224FF4AA
:1008300000510E4802F0C8BF10BD70B50C4C002529
:10084000657001202070FFF7ECFDA5700648007868
:10085000032807D0BDE8704000224FF40051034840
:1008600002F0B2BF70BD00004E000020001C01402D
:1008700026070020000C01400014014070B54E4CCA
:1008800005460421204600F09BF80028F9D02946AF
:10089000204600F09CF80821204600F091F800283E
:1008A000F9D0204600F095F8C0B270BD2DE9FF41A7
:1008B00004464FF48047384602F046FC20004FF0D3
:1008C00000044FF001054FF028062CD001214020F4
:1008D00004F054F8ADF80C708DF80F6003208DF81B
:1008E0000E0003A9354802F0CFFE0E21042002F0CD
:1008F00091FD8DF8084008208DF8090001978DF8CA
:100900000A5001A802F03AFC700103F09DFE38463F
:1009100002F01AFC8DF800608DF801508DF802404D
:100920008DF8035007E08DF800608DF801508DF8C8
:1009300002408DF80340684603F04EFEBDE8FF819B
:1009400010B5012000F06DFA1B4C012805D100F014
:1009500070FAE06A00F07E00E062022000F061FAC6
:10096000012802D1022000F064FA042000F059FAB4
:10097000012802D1042000F05CFA082000F051FAAE
:10098000012802D1082000F054FA102000F049FAA2
:10099000012803D1E06A00F06F00E062202000F03F
:1009A00040FA012802D1202000F043FABDE81040AF
:1009B000402000F036BA0000001000A000180140EE
:1009C00002460020926A0A4200D001207047016668
:1009D0007047006E80B2704770B5F749426872B3D5
:1009E00000234FF48064B2F5800F3AD0B2F5000FC7
:1009F00024D1826842F40002D0E9035635432A43E9
:100A000085692A4345692A430A608268A24200D167
:100A10000364D0E911252A43066CC56C35432A438B
:100A200005682A43C1F8F420426A4A61826B8A61F0
:100A3000C26BCA618268A24217D14B6070BDFFE7EA
:100A400000F108021CCA23431A4383691A430A604F
:100A5000426B4A60426A4A61826B8A61C06BC861BC
:100A6000ECE7826842F48002C6E7406B4860E5E745
:100A70002DE9F84FD14F16460C464FF000084FF4C1
:100A8000003B4FF0100918254FF0030A28B3012846
:100A900058D002287ED10121812003F06FFF01216F
:100AA000584603F02BFF0121C54802F0D3FCC54E88
:100AB0000221304600F076FA0421304600F072FA46
:100AC000002C68D00820ADF800008DF803500220FB
:100AD0008DF802006946304677E00121152003F0C9
:100AE0004DFF0121584603F009FFB54800211030A1
:100AF00002F0B0FCDFF8D0B21021584600F052FAF4
:100B00002021584600F04EFA4021584600F04AFA9B
:100B10005CB18020ADF800008DF803508DF80280A4
:100B20006946384602F0B0FD03E08021584600F0E7
:100B300039FA1021384600F035FA0EB120203CE099
:100B4000202147E00121312003F018FF0121584600
:100B500003F0D4FE9A480121103002F07BFC012101
:100B60009A4802F077FC4FF48061384600F01AFA98
:100B70004FF40061384600F015FA4FF480513846C2
:100B800000F010FA924F74B10120ADF800008DF81A
:100B9000035001E01BE021E08DF8028069463846F1
:100BA00002F072FD03E00121384600F0FBF902215A
:100BB000384600F0F7F966B10420ADF800008DF872
:100BC00003908DF802A06946384602F05DFDBDE84D
:100BD000F88F0421384600F0E5F9F8E7082130469F
:100BE000F9E7754910B10120086106E0086920F0B5
:100BF00001000861886820F001008860704708B52E
:100C00004FF4E06003F020FD43208DF80000002049
:100C10008DF8010002208DF8020001208DF80300FC
:100C2000684603F0D9FC08BD10B501214C042046EC
:100C300003F074FE2046BDE81040002103F06EBEB4
:100C40002DE9F04F012677029BB093460C464FF0FA
:100C500007094FF0120A4FF480680025A0B301285D
:100C60004CD002287ED003282BD1002211461046FA
:100C7000FFF7FEFEFFF7D8FF0121480403F03EFE18
:100C80004D4805618560C0F80C516B21C0F800111A
:100C9000C0F80411022C66D04E49C0F8081141F288
:100CA000AA11C0F8FC1010214160082141614A4995
:100CB000016006618660C0F80C610121434802F0C2
:100CC000C9FB1BB0BDE8F08FFFE7002211460220F0
:100CD000FFF7CEFEFFF7A8FF0121480403F00EFE48
:100CE00001954FF48070CDF824A00295CDE90370F2
:100CF000CDE90695CDE90D86684685E000221146CE
:100D00000220FFF7B5FEFFF78FFF0121480403F033
:100D1000F5FD00212D4802F09DFB4FF4800001906D
:100D200024B1012C04D0022C05D007E0029505E087
:100D3000CDF8088002E04FF40060029007954FF074
:100D400080401190CDF818908014CDF824A0109018
:100D5000039504951820CDE912070095CDE90DB64D
:100D6000684601E00AE055E0FFF736FE0120FFF794
:100D700038FF1449202010310860A2E700221146F4
:100D80000220FFF775FEFFF74FFF0121480403F033
:100D9000B5FD00210D4802F05DFB4FF4000001900D
:100DA00024B1012C04D0022C18D01AE0029518E0CE
:100DB000CDF8088015E00000001000A000100140F0
:100DC00020001440001C01400008014008002020C1
:100DD0000014014062144500070880004FF40060D1
:100DE000029007954FF080401190CDF81890801434
:100DF000CDF824A01090039504951820CDE9120792
:100E00000095CDE90DB66846FFF7E6FD0120FFF736
:100E1000E8FE56E76A49C0F8F4106A49C0F80811BC
:100E200041E76949096B014201D001207047002068
:100E3000704708B50021ADF80010634902280BD0B7
:100E400008280BD004280BD020280BD0FF2802D173
:100E5000886CADF8000008BD886BFAE7C86BF8E74E
:100E6000086CF6E7486CF4E75748806AC00700D082
:100E7000012070475448806A800701D401207047E0
:100E8000002070475048806A400701D50120704714
:100E9000002070474C48806A000701D50120704748
:100EA000002070474848806AC00601D5012070477D
:100EB000002070474448806A800601D501207047B1
:100EC000002070474048806A400601D501207047E5
:100ED000002070473C49086670473B48006E7047E9
:100EE0003948603070473848406A704770B5002311
:100EF0001C46354D02E040C82E665B1C9342FAD377
:100F000002E0641CC82C03D2FFF7C4FF0028F8D00D
:100F1000002002E0401CC82802D26B6A9342F9D339
:100F2000002002E02B6E401C08C19042FAD385E5F8
:100F300070B5254E00231C463066306E01250860D2
:100F400032B910E0306E0125641C0860C82C03D251
:100F5000FFF7A0FF0028F5D15B1CC82B03D2FFF7D9
:100F600083FF0028F4D1284668E500B50021164A21
:100F700003E0106E491CC82903D2FFF78BFF00283D
:100F8000F7D100BD10B5034600220F4C06E0FFF775
:100F900081FF002805D0206E521C01C38A42F6D37F
:100FA000012010BD08B5ADF8001018218DF8031010
:100FB00003218DF80210694602F066FB08BD0000AF
:100FC0001802182062044500001000A02DE9F05F0F
:100FD0000546002092469B468846064681464024A8
:100FE0001BE0284641464746224600F07AF8534621
:100FF0005A46C01A914110D311461846224600F0B5
:1010000061F82D1A67EB01084F46224601200021A6
:1010100000F058F817EB00094E41201EA4F101041E
:10102000DFDC484631462A464346BDE8F09F0000D3
:101030000649074A0868504343F2390210440860E1
:1010400040087047014908607047000038070020D9
:101050006D4EC64140EA01039B0703D009E008C971
:10106000121F08C0042AFAD203E011F8013B00F86D
:10107000013B521EF9D27047D2B201E000F8012BB9
:10108000491EFBD270470022F6E710B513460A4608
:1010900004461946FFF7F0FF204610BD421C10F829
:1010A000011B0029FBD1801A704730B5044600208F
:1010B000034600E05B1C934203D2E05CCD5C401B26
:1010C000F8D030BD202A04DB203A00FA02F10020DB
:1010D00070479140C2F1200320FA03F31943904076
:1010E0007047202A04DB203A21FA02F000217047E1
:1010F00021FA02F3D040C2F1200291400843194680
:1011000070470000064C074D06E0E06840F0010320
:1011100094E8070098471034AC42F6D3FFF740F844
:10112000089903082899030870B58D1810F8014B29
:1011300014F0030201D110F8012B231106D110F88D
:10114000013B03E010F8016B01F8016B521EF9D16D
:10115000ABB110F8012B04F00C048A1A0C2C03D04C
:10116000A2EB84129B1C08E010F8014BA2EB0422B6
:10117000F8E712F8014B01F8014B5B1EF9D5A942C3
:10118000D4D3002070BD0000F0B5F1B1002300BF42
:1011900002EB430C32F813E0BCF802C02EF0030E51
:1011A0002CF0030C50F80E5050F80C6000EB0E04BD
:1011B00000EB0C0740F80E6040F80C507E68656844
:1011C00002338B4266607D60E2D3F0BD2DE9F041D1
:1011D0000488984616460746012A0D460CD1E4B30A
:1011E000281D214690ED000A0139B1EE400A80ED3C
:1011F000000A00F10800F5D1FF2C0CDDB4F5806F7A
:1012000010DBB4F5805F22D0B4F5006F11D0B4F5D7
:10121000806F17D021E03F2C10DC102C12D0202C36
:1012200007D01AE0B4F5807F03D0B4F5007F0ED06C
:1012300013E03846294600F05FF90EE0402C06D056
:10124000802C0AD13846294600F08AF805E07A68F1
:1012500028462146012300F0FFFDB8F1000F04D01D
:10126000B989BA682846FFF78FFF012E1CD100EE1E
:10127000104A002CB8EE400A08BFBDE8F081B7EE76
:10128000001A81EE000A00BF95ED001A95ED012AC3
:1012900020EE011A22EE402A85ED001A85ED012A82
:1012A000013C05F10805EFD1BDE8F0810022426064
:1012B000FF294FF0FF0201800EDDB1F5806F16DBD4
:1012C00029D0B1F5805F2BD0B1F5006F46D141F246
:1012D000A413C0F6020336E03F2913DC102924D002
:1012E00020293BD141F2C413C0F602032BE0B1F533
:1012F000807F1FD0B1F5007F30D141F2E413C0F6FA
:10130000020320E040291AD0802927D141F284131A
:10131000C0F6020317E041F27413C0F6020312E0B4
:1013200041F2D413C0F602030DE041F29413C0F66B
:10133000020308E041F2B413C0F6020303E041F2F5
:10134000F413C0F60203191D03F108020C331B88C5
:10135000126809688381C0E90112002250B2704707
:101360002DE9F0472DED028B03888046084601EBFE
:10137000830AD8F804200021B1EBD30F4FEA5309B8
:1013800000F0AB80D9080AEB890C00EB890E00272E
:10139000C4190AEB070594ED000A95ED003A94EDA7
:1013A000011A95ED014A0EEB07030CEB070694EDCD
:1013B000022A95ED025A70EE035A93ED006AD6EDBB
:1013C000001AD6ED012AD6ED023AD6ED034AC4ED55
:1013D000005A71EE045A93ED017AC4ED015A72EE8F
:1013E000055AD3ED020AC4ED025AD4ED035AD5EDE5
:1013F000036A31EE441A35EEA68A36EE214AD3ED61
:10140000037A84ED038A83ED004A37EE224A83EDA6
:10141000014A30EEA34A83ED024A37EEA44A83ED37
:10142000034AD31931EEC64A33EEE06AD3ED000A1F
:10143000D3ED011A30EE430A32EE452A32EEC75A96
:1014400060EE202A61EE213A21EE201A20EE210AD8
:1014500031EE400A85ED010A24EE210A25EE211A1B
:1014600025EE205A72EEA32A24EE204A30EE450AD9
:10147000C5ED002A86ED000A34EE010A86ED010A68
:1014800093ED020A93ED031A35EEE63A22EE004A96
:1014900023EE015A23EE003A22EE012A34EEE77AD7
:1014A00033EE422A85ED032A26EE012A27EE011AA1
:1014B00027EE003A26EE000A34EE054A32EE432AC1
:1014C00030EE010A013907F1100785ED024A86ED79
:1014D000022A86ED030A7FF45BAF4946022300F03F
:1014E000BBFCD8F80420504649460223BDEC028BD1
:1014F000BDE8F04700F0B0BC2DE9F04F81B02DED14
:10150000088B8EB002880346500801EB800505EB7E
:10151000800691ED000A91ED011A96ED002A96EDF4
:10152000013A04935B6806EB800730EE024A30EE26
:10153000420A31EE032A31EE431A95ED013A95ED58
:10154000005A0593930897ED017AD7ED000A0293AC
:1015500074EE452A72EE433A34EE054A32EE032A1F
:101560006FF0010334EE204A32EE072A03EB9202B9
:1015700030EE036A71EE451A30EE430A31EE051A79
:1015800081ED004A0A9181ED012A510836EE476A41
:1015900071EEA01A72EEE02A73EEC73A30EE070A37
:1015A00031EE601A0095019603970D91C10085ED0B
:1015B000006AC5ED011AC6ED002AC6ED013A87EDB5
:1015C000000A87ED011A0C9100EB40016FF0070350
:1015D0006FF003074FEA800E07EBC00B07EB800AA2
:1015E00003EB001903EB81028C0000200025002191
:1015F0000B9100BF0A9E059B07900695089406EB89
:1016000004080C9C311806EB040C06EB0E0491ED5B
:10161000020A9CED022AD4ED020A30EE026AD8EDED
:10162000022A36EE204A34EE224A91ED031A9CED4E
:10163000033AD4ED031AD8ED033A81ED024A94ED52
:10164000034A31EE037A98ED035A37EE044ACDF897
:1016500024E034EE054A81ED034A0B9930EE420A4C
:1016600031EE431A30EE212A03EB010E32EE634ACB
:1016700031EE602A0D9932EE225A36EE602A37EEAC
:10168000613A30EE610A31EE201A1F18581932EE15
:10169000622A33EE633A30EE230A002931EE621AF1
:1016A00000F0CC800A998E1801EB0A0301EB0905C2
:1016B000594493ED007AD6ED010AD1ED003A77EE68
:1016C000202AD5ED014A72EEA35A75EEA45A13ED05
:1016D000016AD6ED001A51ED016AD5ED007AC3ED2D
:1016E000005A11ED018A76EE215A95ED009A35EEF9
:1016F000888A38EE098A03ED018A97ED028A97ED10
:10170000039A24EE08AA25EE09BA25EE085A24EE1B
:10171000094A35EE444A37EE605A84ED034A36EE04
:10172000614A35EE666A33EEE47A36EE276A74EE85
:10173000070A66EE091A20EE899A60EE880A26EEFC
:10174000086A3AEE0BAA71EEE00A36EE096A84EDF9
:1017500002AAC1ED000A01ED016A90ED046AD0ED24
:10176000050A62EE061A23EE208A23EE063A22EEDE
:10177000202A33EE422A8CED032A32EEE32A35EE9C
:10178000E63A71EE881A33EE673A32EE642A0D9823
:10179000CCED021A62EE461A23EE066A23EE203AD8
:1017A00022EE202A31EEC33A32EE462A013886ED87
:1017B000013A86ED002A0D909EED062A9EED073A2D
:1017C0000C9820EE026A61EE030A21EE021A20EE66
:1017D000030A083031EE400A37EEE61ADDF824E05D
:1017E0000C9088ED030A37EE440A31EE451A0B9847
:1017F00021EE034A20EE033A20EE020A36EE206A7A
:1018000021EE021A34EE400A183088ED026A85EDA6
:10181000010A31EE030A089C0B9085ED000A069D33
:1018200007980EF1080E083410350830A9F10809A0
:10183000083AABF1080BAAF1080ADBE697ED026A59
:1018400097ED037A64EE060A65EE071A25EE065A4E
:1018500024EE074A30EEA16A35EE444A84ED026A6E
:1018600084ED034A90ED044A90ED055A22EE046A95
:1018700023EE057A23EE043A22EE052A36EE074AD5
:1018800033EE422A8CED024A8CED032A9EED062AA5
:101890009EED073A029D20EE024A21EE035A21EE08
:1018A000021A20EE030A0A98059A34EE052A31EE50
:1018B000400A2946042388ED022A88ED030A00F035
:1018C000CBFA049C009862682946042300F0C4FA0D
:1018D000626801982946042300F0BEFA6268039802
:1018E000294604230EB0BDEC088B01B0BDE8F04FD3
:1018F00000F0B2BA9FED221A9FED222A20EE010AD3
:10190000B5EE001A30EE010ABDEEC01A11EE100A53
:10191000B5EE400AF1EE10FAB8BF013801EE100A38
:10192000B8EEC11A30EE410A20EE020ABDEEC01A2E
:101930009FED152A11EE100A002130EE021AB1EBCC
:10194000502F41F204211CBF0020B0EE410AC0F626
:10195000020101EE100A01EB8001B8EE411A30EEEF
:10196000410A91ED001A91ED012AB7EE003A33EEEB
:10197000403A23EE011A20EE020A31EE000A7047C7
:1019800083F9223E00000044000000C42DE9F04F1E
:1019900081B02DED048B84B00588D0F804C0D0F858
:1019A00008806F1E0020B0EBD30F0CEB870B029763
:1019B000CDE9005300F0E68125F0070008EB800038
:1019C000039045F007009FEDBB0ADF084FEAD509F9
:1019D00005F007060CEB800A604600BF0B68B9F102
:1019E000000FCBF800304B68CBF804308B68CBF895
:1019F0000830CB68CBF80C300B69CBF810304B6952
:101A0000CBF814308B69CBF81830CB69CBF81C308D
:101A100090ED006A90ED015A90ED027A90ED031A74
:101A200090ED042A90ED054A90ED063A00F04481CD
:101A30004FF0000EF0EE400AF0EE401AF0EE402AB1
:101A4000F0EE403AF0EE404AF0EE405AF0EE406AD6
:101A50004B46F0EE407A00BF08EB0E0494ED008A8E
:101A600000EB0E0523EE089A26EE086A71EE891A3D
:101A700094ED019A37EE866A65EE087A76EEA76AEB
:101A800067EE087A25EE095A75EEA75A61EE087AD4
:101A900036EE055A27EE096A74EEA74A62EE087A16
:101AA00076EE866A21EE096A73EEA73A64EE087A4A
:101AB00075EE865A22EE096A72EEA77AD5ED072AEC
:101AC00074EE864A24EE096A73EE863A23EE096ABA
:101AD00028EE228A77EE867A95ED086A70EE880AFB
:101AE00022EE898A71EE881A29EE068A94ED029A0E
:101AF00070EE880A27EE097A35EE077A21EE095A48
:101B000076EE856A22EE095A75EE855A24EE095A58
:101B100074EE854A23EE095A73EE853A22EE895A0D
:101B200077EE857A95ED095A26EE098A71EE881AC4
:101B300029EE058A94ED039A70EE880A21EE091ABF
:101B400037EE011A22EE097A76EE876A24EE097AD8
:101B500075EE875A23EE097A74EE874A22EE897A67
:101B600073EE873A26EE097A77EE877A95ED0A7A50
:101B700025EE098A71EE881A29EE078A94ED049AF7
:101B800070EE880A22EE092A31EE022A24EE091AA2
:101B900076EE816A23EE091A75EE815A22EE891AD1
:101BA00074EE814A26EE091A73EE813A25EE091A7F
:101BB00077EE817A95ED0B1A27EE098A71EE881A75
:101BC00029EE018A94ED059A70EE880A24EE094AFE
:101BD00032EE044A23EE092A76EE826A22EE892A40
:101BE00075EE825A26EE092A74EE824A25EE092AFB
:101BF00073EE823A27EE092A77EE827A95ED0C2A67
:101C000021EE098A71EE881A29EE028A94ED069A6D
:101C100070EE880A23EE093A34EE033A22EE894A3E
:101C200076EE846A26EE094A75EE845A25EE094A54
:101C300074EE844A27EE094A73EE843A21EE094A8B
:101C400037EE848A95ED0D4A62EE097A71EEA71A95
:101C500069EE047A94ED079A70EEA70A62EE892A7B
:101C600073EE227A26EE093A76EE836A25EE093A79
:101C700075EE835A27EE093A74EE834A21EE093A4B
:101C800073EE833A22EE093A78EE032A95ED0E3A86
:101C900024EE098A71EE881A29EE038A70EE880A0A
:101CA000B9F101090EF1200E7FF4D6AE039D544622
:101CB000994614E00000000000F11C044546F0EED7
:101CC000407AF0EE406AF0EE405AF0EE404AF0EE14
:101CD000403AF0EE402AF0EE401AF0EE400A203191
:101CE0000BF1200BA6B3334695ED008A043526EEA2
:101CF000086A77EE867AB0EE456A25EE085A76EEE7
:101D0000856AB0EE475A27EE087A75EE875AB0EE2C
:101D1000417A21EE081A74EE814AB0EE421A22EEA0
:101D2000082A73EE823AB0EE442A24EE084A72EE94
:101D3000842AB0EE434A94ED003A24EE089A28EE45
:101D4000038A71EE891A70EE880A0434013BCBD104
:101D500002F120052030C2ED007AC2ED016AC2ED29
:101D6000025AC2ED034AC2ED043AC2ED052AC2EDA1
:101D7000061AC2ED070A013F0AF1200A2A467FF43B
:101D80002DAE01E060461546019A12F0070225D0FB
:101D90009FED280ADDF800E051F8043BBEF1000F8A
:101DA0004BF8043BB0EE401A13D000237746B0EE58
:101DB000401A00BF08EB0304C61896ED002A94ED04
:101DC000003A013F22EE032A31EE021A03F1040326
:101DD000F0D1A5EC011A0430013ADDD1029F0021B7
:101DE000B1EB970F16D0B90802680CF11003CCF8CC
:101DF000002042680139CCF804208268CCF8082021
:101E000000F11002C068CCF80C009C461046EBD1E3
:101E100010469C4617F0030106D000BF50F8042B73
:101E200001394CF8042BF9D104B0BDEC048B01B09E
:101E3000BDE8F08F00000000B0B505460498298089
:101E400008446FF0030101EB800118461C46AA60AC
:101E5000FFF719F96C60B0BD2DE9F04F81B02DEDA1
:101E6000108BA0B0DFED04CA00900430CDE902323F
:101E70000190CDE91E1101E0F304353F1F9A4FF0A8
:101E8000000AD308DF00A7EBD200C0001D904FEA84
:101E9000C20C03EB430503EB8302580106931E01BA
:101EA000019B2C014FEAC20EED00CDE90C0ECDE9ED
:101EB0000A5600BF0A9D191803EB05091D9D03EB87
:101EC0000E0003EB070810ED014A86469A1918190F
:101ED00003EB050B13ED011A11ED012A18ED013A80
:101EE00012ED017A50ED010A59ED011A5BED012A5C
:101EF00031EE025A33EE046A77EE203A71EEA24ACE
:101F000075EE235A76EE246A75EEA67A43ED017AD1
:101F100075EEE65AD8ED007A9EED008A99ED00BA8A
:101F20009BED00CAD3ED006A41ED015AD1ED005A94
:101F300092ED009A90ED00AA37EE88EA7BEE0C8ACB
:101F400036EEA5DA39EE0AFA35EE635A36EE646AF1
:101F50007EEE684A7DEE0F9A7DEE4F3A35EE24DA3A
:101F600035EE645A7EEE28AA02ED01DA33EEC6DAC7
:101F700000ED015A36EE235A31EE421A33EE442A6E
:101F800037EE603A31EEE24A37EEC86A7BEE4C0A31
:101F900079EEAABA79EEEA9A72EE441A32EE042A7F
:101FA00036EE604A36EE206AC3ED00BAC1ED009A03
:101FB00082ED00DA80ED005A36EEE55A39EE4A7AC3
:101FC00061EEAC1A22EE2C2A24EE2C4A26EE2C6A64
:101FD00071EE210A73EE022A75EE043A77EE064A94
:101FE00031EE611A33EE422A35EE443A37EE464A74
:101FF0002646744670EEA45A70EEE40A31EE045A96
:102000001F9A1E9948ED015A73EEE25A4BED010AF0
:1020100072EEA30A204604ED015A33EE425ADDF86F
:1020200034E0C8ED005ACBED000A84ED005A0C985C
:1020300031EE441A34460B9E924409ED011A32EEF9
:10204000031A8A45634489ED001AFFF433AF1F98E1
:102050004028C0F0D4810298009E80B20590069876
:10206000CDE90E4CC0EBC000C00000240125109744
:10207000049000BF0598039B044403EBC40191ED59
:10208000000A03EB04128DED1D0A92ED000A04EB29
:10209000440203EBC2008DED1C0A90ED000A03EB35
:1020A00044118DED1B0A91ED000A04EB8401C80078
:1020B00003EBC1018DED1A0A91ED000A4FEAC20A45
:1020C0004FEA021B03EB02128DED190A92ED000A92
:1020D000C4EBC4024FEAC40CD10003EBC2028DED85
:1020E000180A92ED000A0CF104024FEA041E1A4489
:1020F0008DED170A92ED000A0EF104021A448DEDDF
:10210000160A92ED000A0AF104024FEA44191A4431
:102110008DED150A92ED000A09F104021A448DEDC5
:10212000140A92ED000A043018448DED130A90ED64
:10213000000A0BF1040018448DED120A90ED000A1C
:10214000081D18440994D0ED006A0796B446089516
:102150002B46DDE90C54DDE90A76DDF810808DEDC3
:10216000110A00BF10980E990CEB05090CEB000E3C
:102170000CEB04000CEB060B0CEB010A0CEB07025A
:102180000CEB0801DCED027A99ED028A9EED029AD1
:1021900090ED02AA9BED02DA9AED02EA92ED02FAC4
:1021A000D1ED028A37EE88BA39EE0ACA7DEE0E9A70
:1021B0007FEE28AA7BEE29BAF0EE6C3A7CEE2ACAB2
:1021C0007BEEACDACCED02DA7BEEECBADCED03CAE6
:1021D000D9ED03DADEED03EAD0ED03FA9BED030A55
:1021E0009AED031A92ED032A91ED033A3CEEAD4AC3
:1021F0003EEEAF5A30EE016A32EE037A74EE060A12
:1022000075EE071ADDED1A4ADDED135A70EEA12ABC
:1022100070EEE10ACCED032A64EEAB1A65EEA02A5B
:1022200071EEA21A64EEA00A65EEAB2A70EEE20A25
:10223000C9ED021AC9ED030A7BEE690A7CEE6A1A3F
:1022400034EE464A35EE475A9DED1CCADDED154A7F
:1022500030EE856A34EE617A6CEE062A24EE87BA97
:102260002CEE077A24EE866A30EEC55A31EE844AA7
:10227000DDED180ADDED111A37EE466A8BED036AC3
:1022800020EE856A21EE847A20EE844A21EE855A7A
:1022900037EE066A34EE454A39EE4A5A3FEE687A1E
:1022A0007EEEEF1A30EE410A32EE431A7BEE222A1E
:1022B00035EE472A35EE073A31EEC15A31EE811A32
:1022C000CBED022A8AED026A8AED034A37EEC84A4C
:1022D0003DEE4E6A7CEEED0A22EE232A23EE233AEF
:1022E00025EE235A21EE231AF0EE63CA34EE027A69
:1022F00076EE031A70EE852A70EE017ADDED1D3A56
:10230000DDED164A37EE278A32EEE19A23EE88AAEF
:1023100024EE89BA23EE899ADDED173A37EE677A13
:1023200071EEA21A63EE872A66EEA17A63EEA11A15
:1023300026EE877A24EE888A31EEC77A34EE422A76
:1023400036EE433A30EEC54A30EE410ADDED190A69
:10235000DDED121A39EE488A32EE001A34EE435A95
:102360008EED038A81ED037A20EE816A21EE857A73
:1023700020EE855A21EE811A3AEE0BAA72EEA72AB8
:1023800036EE076A35EE411A8EED02AAC1ED022A39
:1023900080ED026A80ED031A1F9833EE041A03449D
:1023A0001E989DED1B4A9DED145A32EE400A834261
:1023B0000F9824EE002A25EE013A24EE011A25EEAC
:1023C000000A32EE032A31EE400A844482ED022AEA
:1023D00082ED030AFFF4C6AE089D0698079E0135FC
:1023E000099C854206F10806FFF444AE0298C0003D
:1023F00002901F983F2806981F903FF63FAD20B0EF
:10240000BDEC108B01B0BDE8F08F10B578B14FF482
:1024100000710446FEF74AFF50B94FF480602082F5
:1024200041F68810C0F603006061002000E0FF2044
:1024300040B210BD10B568B140210446FEF736FF2A
:1024400048B98020208242F68810C0F603006061FF
:10245000002000E0FF2040B210BD10B578B14FF46D
:1024600080610446FEF722FF50B94FF400602082DD
:1024700042F68830C0F603006061002000E0FF20D3
:1024800040B210BD10B570B180210446FEF70EFFBA
:1024900050B94FF48070208244F68830C0F60300B3
:1024A0006061002000E0FF2040B210BD10B568B1AF
:1024B00010210446FEF7FAFE48B92020208244F697
:1024C0008870C0F603006061002000E0FF2040B289
:1024D00010BD10B578B14FF400610446FEF7E6FE7A
:1024E00050B94FF48050208245F20800C0F6030036
:1024F0006061002000E0FF2040B210BD10B578B14F
:102500004FF480710446FEF7D1FE50B94FF40070CD
:10251000208249F20800C0F603006061002000E05C
:10252000FF2040B210BD10B568B120210446FEF76F
:10253000BDFE48B94020208249F60800C0F60300DD
:102540006061002000E0FF2040B210BDF0B581B016
:1025500014460E46054673B12846314622461F46AC
:1025600000F060F8284621463A46012301B0BDE854
:10257000F040FEF72BBE2846314600220123FEF72D
:1025800025FE28463146224601B0BDE8F04000F065
:10259000A3B8B1F5007F0ADA7F2916DC202929D0FB
:1025A00040293BD142F22751C0F600010847B1F55E
:1025B000006F14DAB1F5007F21D0B1F5806F2DD115
:1025C00042F20B41C0F60001084780291CD0B1F54A
:1025D000807F23D142F28541C0F600010847B1F562
:1025E000805F16D0B1F5006F18D142F25B41C0F6A2
:1025F0000001084742F2AD41C0F60001084742F22F
:10260000FD41C0F60001084742F23541C0F6000125
:10261000084742F2D341C0F6000108474FF0FF30AF
:102620007047000080B591ED001A91ED012AD0F8B5
:1026300014E0008831EE023AB6EE000A31EE421A9A
:10264000B0F1010C23EE003A21EE001A82ED003ABF
:1026500082ED011A08BF80BD01F1080301EBCC0136
:102660000EF108000832043111ED011A91ED002A33
:1026700093ED003A93ED014A90ED005A90ED016A16
:1026800033EE417A72EE040A67EE051A60EE862A8E
:1026900027EE066A31EE031A34EE422A25EE205A5E
:1026A00031EE611A32EE062A31EE621A32EE452A16
:1026B00021EE001A22EE002A82ED001A82ED012A94
:1026C000BCF1010C03F1080300F1080002F108025B
:1026D000A1F10801C8D180BD91ED000A91ED011A68
:1026E0000388406930EE002A31EE011AA3F1010C93
:1026F00032EE013AB6EE000A32EE411A23EE003A0B
:1027000021EE001A00F1080301F1080001EBCC01F1
:1027100082ED003A82ED011A0832043111ED011AFE
:1027200090ED003A91ED002A90ED014A93ED005AA8
:1027300093ED016A31EE437A72EE040A67EE051AF0
:1027400027EE067A31EE031A34EE422A25EE205A9D
:1027500020EE866A31EE211A32EE072A31EE061A91
:1027600032EE452A21EE001A22EE002A82ED001AEE
:1027700082ED012ABCF1010C03F1080300F108000D
:1027800002F10802A1F10801C8D1704710B513F099
:10279000B2FC002010BD00007CB505460C4614219B
:1027A0002046FEF770FCA5202070022060702946AC
:1027B000A01D01F0C2FF684600F038FA48B90120B8
:1027C000A0709DF80000E070BDF80410201D01F01D
:1027D000B0FF08480078A07207480078E072074808
:1027E00000782073064800782074064800786074EA
:1027F0007CBD0000D1030020D20300200400002093
:10280000D3030020D40300202DE9F0470546884675
:1028100016461F46DDE9089414212046FEF733FCD6
:10282000A5202070042060700220A0704B20E07072
:102830002946201D01F081FF414604F1080001F006
:102840006FFF314604F10B0001F06AFF394604F1D5
:102850000E0001F065FF494604F1110001F060FF30
:10286000BDE8F08770B505460C4614212046FEF7FA
:102870000AFCA52020700120607095F8440008B182
:10288000012000E0002095F8451009B1022100E088
:102890000021084395F8461009B1042100E0002109
:1028A0000843A07095F84700E070201D296801F0EA
:1028B00044FF04F10800696801F03FFFD5ED030A09
:1028C000B0EE600ADFED160A02F02EFF0646314632
:1028D00004F10C0001F02DFFD5ED020AB0EE600A04
:1028E000F2EE040A02F020FF0646314604F10E0023
:1028F00001F01FFFD5ED040AB0EE600ADFED080A13
:1029000002F012FF0646314604F1100001F011FFFB
:10291000B5F8480081B204F1120001F00AFF70BD61
:102920000000C8422DE9F04782460F4690461D46FA
:10293000089C05F10A00C6B20CB10A2D02D900208C
:10294000BDE8F087AA202070552060700120A0709B
:1029500084F803A0277138126071A5710020E0711E
:1029600045B1B8F1000F05D02A46414604F10800F0
:10297000FEF770FBB01E81B2204600F00AF88146D7
:10298000B01E04F800904FEA2921701E21543046F1
:10299000D6E730B502460B464FF6FF7017E012F847
:1029A000015B80EA052000210FE000F400442CB117
:1029B00041F2210484EA4004A4B203E04FF6FF741C
:1029C00004EA400420464C1CA1B20829EDD31C1E89
:1029D000A3F10105ABB2E2D130BD2DE9F0410446CF
:1029E0000D4617465CB157B10A2D08D32078AA28A6
:1029F00005D16078552802D1A078012802D00120A5
:102A0000BDE8F081A079E17940EA01260A2E03D8D9
:102A100006F10A00854201D00120F1E7A81E215CE1
:102A2000681E205C41EA0028A81E81B22046FFF7FC
:102A3000B0FF404501D00120E2E7E078387020790E
:102A4000617940EA01207880BE802EB1324604F1DF
:102A50000801B81DFEF7FEFA0020D1E710B50120ED
:102A600001F0ACFF002001F0A9FF10BD08B5014640
:102A700000200090034800900098084400900098BF
:102A8000008808BD006C00400149086070470000E4
:102A900000860D4208B500220092044A0092009A76
:102AA00002440092009A116008BD0000006C0040D2
:102AB00010B513F0B3FB10BD10B5002013F078FB78
:102AC00010BD00001CB501F03FFB0821424801F099
:102AD0007FFC42490870002407E03F48005D6228FF
:102AE00001D13F490870601CC4B23C480078844260
:102AF00001DA082CF1D33A480078FF2807D137488B
:102B00000078012803D134480078354908703448EA
:102B10000078FF2801D1012000E000203149087031
:102B20000846007868B9304800F0FCF848B9002140
:102B30000A2000F05BF920B901A9082000F068F82C
:102B400008B101201CBD9DF8040000F0020020B96E
:102B500000F00AF9F8B10120F4E7002411E004F1D3
:102B60001001C8B201A900F053F808B10120E9E74B
:102B70001E48005D9DF80410884200D003E0601CF0
:102B8000C4B2402CEBD300BF402C04D000F0ECF8D2
:102B900008B10120D6E700F02BF808B10120D1E7F9
:102BA000002411E06946042000F032F808B1012049
:102BB000C8E79DF80000642801D80020C2E764201F
:102BC00012F0A4FF601CC4B21E2CEBD3C0210A205B
:102BD00000F00CF90120B5E7D5030020D403002054
:102BE000D3030020D1030020D2030020E892010883
:102BF00010B530210A2000F0F9F808B1012010BD0D
:102C00000A2012F083FF00210A2000F0EFF8F6E717
:102C100070B504460D4601232A4621460248007835
:102C200001F002FB70BD0000D30300202DE9F0434A
:102C300085B004467CB13A480078FF280BD003A841
:102C400000F070F838B9022304AA0421344800784F
:102C500001F0EAFA18B1012005B0BDE8F0839DF853
:102C60001000642801D90120F6E79DF810002070BB
:102C70009DF81000642110FB01F09DF811106422F2
:102C800011FB02F100EB11206080002713E002230A
:102C900004AA19462248007801F0C6FA08B10120BA
:102CA000DAE79DF811009DF8101040EA01204DF878
:102CB0002700781CC7B2032FE9D3DDE900010844DF
:102CC000029900EB0108009D0198A84200D2019DE5
:102CD0000298A84200D2029D009E0198B04200D9FD
:102CE000019E0298B04200D9029EA8EB0500A0EB1D
:102CF000060940F2311009FB00F04FF47A71B0FB85
:102D0000F1F0A080A08840F6C411884203D3A088C7
:102D10004900884201D901209EE700209CE700007D
:102D2000D303002010B504460CB9012010BD214684
:102D30000020FFF76DFFF9E710B50F210A2000F022
:102D400055F808B1012010BD012012F0DFFE00216E
:102D50000A2000F04BF808B10120F4E7012012F03E
:102D6000D5FE0020EFE700001CB500240BE01E4A52
:102D7000115D04F11002D0B200F038F808B1012062
:102D80001CBD601CC4B2402CF1D3002410E004F13F
:102D90001001C8B201A9FFF73BFF28B91248005D36
:102DA0009DF80410884201D00120E9E7601CC4B2FC
:102DB000402CECD369460820FFF72AFF08B1012018
:102DC000DEE79DF8000000F0070040F002000090F0
:102DD0009DF80010082000F009F808B10120CFE7A5
:102DE000FFF7AAFFCCE70000E892010813B50446FC
:102DF000012301AA21460248007801F021FB1CBDF5
:102E0000D303002029B1064A52680243044B5A609A
:102E100004E0034A52688243014B5A607047000045
:102E2000002004E010B511F0C7FE04F017FA11F00D
:102E3000DDFE10BD486070471AB103680B430360A4
:102E400002E003688B4303607047000001684FF69F
:102E5000FE72114001600021016041608160C1602B
:102E60004C49884204D10F214A4A083A51608FE008
:102E700048491431884204D1F021464A083A516049
:102E800086E044492831884205D14FF47061414AB7
:102E9000083A51607CE03F493C31884205D14FF40B
:102EA00070413C4A083A516072E03A4950318842D8
:102EB00005D14FF47021374A083A516068E035492E
:102EC0006431884205D14FF47001324A083A5160AA
:102ED0005EE030497831884205D14FF070612D4A6B
:102EE000083A516054E02B498C31884205D14FF0AB
:102EF0007041284A083A51604AE02749884203D184
:102F00000F21021F116043E023491431884204D18C
:102F1000F021214A121F11603AE01F4928318842EE
:102F200005D14FF470611C4A121F116030E01A493C
:102F30003C31884205D14FF47041174A121F11608D
:102F400026E015495031884205D14FF47021124ACC
:102F5000121F11601CE010496431884205D14FF402
:102F600070010D4A121F116012E00B49783188423E
:102F700005D14FF07061084A121F116008E0064940
:102F80008C31884204D14FF07041034A121F116006
:102F900070470000080002400804024021B10268A6
:102FA00042F00102026004E002684FF6FE731A402C
:102FB0000260704710B50246002000230B6803EA48
:102FC00002040CB1012000E0002010BD10B5002269
:102FD000026847F6F0739A430C6A8B6823430C69C6
:102FE00023434C6923438C692343CC6923434C6AB4
:102FF00023438C6A23431A430260CB6843600B6807
:1030000083604B68C36010BD002101604160816036
:10301000C160016141618161C1610162416281629E
:103020007047000010B511F0C7FD012000F092F8C4
:1030300048B1012000F088F804480068401C0349AA
:10304000086004F047F811F0D1FD10BD1C0100200C
:1030500010B511F0B1FD4FF4804000F07BF898B14D
:103060004FF4804000F070F809480068401C08499F
:10307000086012F07FFD10B907F096FE04E0012011
:103080000449087007F008F911F0B0FD10BD000008
:10309000200100204D0000203EB504464FF4801072
:1030A00000F052F84FF48010019000208DF80800D5
:1030B00008208DF8090001208DF80A0001A800F011
:1030C0005DF803208DF8000000208DF801008DF8D8
:1030D00002008DF80340684601F07EFA3EBD10B54F
:1030E00011F06AFD082000F035F820B1082000F04A
:1030F0002BF804F03FF911F079FD10BD10B5E02474
:1031000011F05AFD4FF4007000F024F828B14FF48C
:10311000007000F019F802F02FFA0948006820400A
:1031200058B108480068401C06490860FDF769FB73
:10313000204600F009F807F0AFF811F057FD10BD78
:103140001404014024010020014908607047000078
:1031500014040140014600200022074B1B6803EACB
:103160000102054B14331B680B4013B10AB1012057
:1031700000E00020704700000004014000212349C6
:103180008279002A3AD00A46126803689A430B46AD
:103190001A600A1D126803689A430B1D1A600279AF
:1031A00011440A6803681A430A60184A0832126810
:1031B00003689A43154B08331A601A1D1268036896
:1031C0009A43124B0C331A604279102A0ED11A1FFF
:1031D000126803681A430D4B08331A601A1D1268EF
:1031E00003681A43094B0C331A600DE00749427912
:1031F00011440A6803681A430A6005E00279114421
:103200000A6803689A430A6070470000000401409E
:103210000021016001710C21417100218171704711
:103220000246002107E010208840904201D1084664
:103230007047481CC1B20829F5D3FF20F8E7000009
:103240000246012108E0064830F81100904201D101
:1032500008467047481CC1B20829F4D3FF20F8E79C
:103260008C9101080249C9680143014AD160704745
:103270000020024030B504460625B4F1006F02D3A9
:103280001448844202D30925284630BD7C20FFF72C
:10329000E9FF4FF4302000F0A5F80546062D17D1C0
:1032A0000D48006940F002000B490861084644617E
:1032B000006940F0400008614FF4302000F092F8BF
:1032C00005460548006943F6FD710840024908615A
:1032D0002846DAE7000008080020024006201249CC
:1032E000C96801F0010109B101201CE00E49C9685B
:1032F00001F0040109B1032015E00B49C96801F090
:10330000080109B104200EE00749C96801F0100165
:1033100009B1052007E00449C96801F0400109B17D
:10332000072000E0062070470020024003480069A3
:1033300040F0800001490861704700000020024011
:103340000549096821F01001034A11601146096816
:10335000014311607047000000200240F0B50446B0
:103360000D4606264FF4005704F0030010B109265D
:103370003046F0BD7C20FFF775FF4FF4005000F0A1
:1033800031F80646062E11D10948006940F00100C7
:10339000074908612560384600F024F806460448CD
:1033A000006943F6FE710840014908613046E0E7D4
:1033B0000020024001460020034A106800F0F80097
:1033C0000843106070470000002002400248034993
:1033D0004860034848607047230167450020024069
:1033E000AB89EFCD00B50246062300BF00BF00BF8A
:1033F00000BF00BFFFF772FF034603E0FFF76EFF59
:103400000346521E012B01D1002AF7D102B90A232B
:10341000184600BD30B500228B071C0F0F2303FA9E
:1034200004F20B4B8C1053F824309343084C8D104E
:1034300044F8253023468C1053F824308C07240F91
:1034400000FA04F42343024C8D1044F8253030BDBB
:1034500008000140F0B502460C460023002600217A
:103460000025002002F08047B7F1804F02D1844F41
:10347000396A11E002F00057B7F1005F02D1804FC6
:10348000796A09E002F08057B7F1805F02D17C4F82
:10349000B96A01E07A4F7968C2F3034593B2794F74
:1034A0001740B7F5401F0AD121F07061744F7F6853
:1034B00027F07067DFF8C8C1CCF80470BDE002F4F3
:1034C0008017B7F5801F13D102F40017B7F5001F5E
:1034D00003D10327AF403E0402E0032707FA05F6B5
:1034E000B14302F0E047002FE8D141F07061A4E061
:1034F00002F08077B7F1807F47D102F00407042FF4
:1035000029D102F00077B7F1007F16D1C2F34057FE
:103510003F0103FA07F7B9433CB1594F786840F0CF
:10352000010040F07060786087E0554F786820F0C7
:10353000010040F0706078607FE0C2F340573F01C7
:1035400003FA07F7B9434E4F786820F0010040F0C6
:103550007060786071E043F00407C2F3405C4FEAAA
:103560000C1C07FA0CF7B9433CB1454F786840F0A2
:10357000010040F0706078605FE0414F786820F0B3
:10358000010040F07060786057E002F08067B7F1AA
:10359000806F47D102F00807082F29D102F0007789
:1035A000B7F1007F16D1C2F340573F0103FA07F786
:1035B000B9433CB1324F786840F0080040F0706089
:1035C00078603AE02E4F786820F0080040F0706094
:1035D000786032E0C2F340573F0103FA07F7B9437E
:1035E000274F786820F0080040F07060786024E091
:1035F00043F00807C2F3405C4FEA0C1C07FA0CF7D3
:10360000B9433CB11E4F786840F0080040F070604C
:10361000786012E01A4F786820F0080040F070607F
:1036200078600AE0C2F340573F0103FA07F7B94355
:1036300002F0E0470FB941F070612CB1C2F340577E
:103640003F0103FA07F7394302F08047B7F1804F93
:1036500002D10B4F396211E002F00057B7F1005F61
:1036600002D1074F796209E002F08057B7F1805F1D
:1036700002D1034FB96201E0014F7960F0BD000053
:1036800000000140000030702DE9F04102460025A5
:103690000026002000230024002791F803C00CF02E
:1036A0000F0591F803C00CF0100CBCF1000F03D013
:1036B00091F802C04CEA050591F800C0BCF1000F7A
:1036C00031D0146800202BE04FF0010C0CFA00F30D
:1036D000B1F800C00CEA03069E4220D183004FF0EF
:1036E0000F0C0CFA03F7BC4305FA03FC4CEA040484
:1036F00091F803C0BCF1280F06D14FF0010C0CFA71
:1037000000FCC2F814C00AE091F803C0BCF1480FF5
:1037100005D14FF0010C0CFA00FCC2F810C0401C9F
:103720000828D1D31460B1F800C0BCF1FF0F34DD1C
:10373000546800202EE000F1080C4FF0010808FA50
:103740000CF3B1F800C00CEA03069E4221D18300BD
:103750004FF00F0C0CFA03F7BC4305FA03FC4CEADC
:10376000040491F803C0BCF1280F05D100F1080C46
:1037700008FA0CF8C2F8148091F803C0BCF1480FA5
:1037800007D100F1080C4FF0010808FA0CF8C2F854
:103790001080401C0828CED35460BDE8F0814FF65D
:1037A000FF710180012181700421C17070470246C0
:1037B000002093680B400BB1012000E0002070470F
:1037C00041617047016170470AB1016100E04161E8
:1037D000704721B1028842F48062028004E00288CE
:1037E0004FF6FF331A4002807047B1F5006F04D1E5
:1037F000028842F40062028004E002884FF2FF7304
:103800001A4002807047000010B5044619488442EF
:1038100009D10121480501F0A1F800214FF4001061
:1038200001F09CF825E01448844209D10121880563
:1038300001F094F800214FF4800001F08FF818E0B7
:103840000E48844209D10121C80401F0A7F80021E3
:103850004FF4002001F0A2F80BE00948844208D19F
:103860000121080501F09AF800214FF4801001F0C1
:1038700095F810BD0054004000580040004401403D
:103880000048014021B1028842F00102028004E0B8
:1038900002884FF6FE731A400280704721B1828879
:1038A00042F40062828004E082884FF2FF731A4083
:1038B0008280704721B1828842F48052828004E085
:1038C00082884EF6FF731A408280704721B10288C9
:1038D00042F48072028004E002884FF6FF631A40CF
:1038E0000280704721B1028842F40072028004E035
:1038F00002884FF6FF531A40028070470CB502460B
:10390000002000230193009300920B0F019321F0FC
:103910007F41019B1BB1009B1433009303E0090C12
:10392000009B18330093009B1B680B400BB10120D8
:1039300000E000200CBD00002DE9F04387B00446F4
:103940000D460026B1460427DFF8F080A6884FF622
:10395000C070064001A801F04FF83948844202D0F7
:103960003848844202D1DDF80C8007E036488442B2
:1039700002D03648844201D1DDF810803448B8FBCB
:10398000F0F01FFA80F9242E00DD242646EA09060D
:10399000A68020884FF6FE710840208000262D4921
:1039A000286888420CD828684000B8FBF0F087B23D
:1039B000042F00DA04273E4309F10100208427E0A8
:1039C000E8884BF6FF71884206D1286800EB40007A
:1039D000B8FBF0F087B209E0286800EBC00101EB0A
:1039E0000010B8FBF0F087B247F48047C7F30B0034
:1039F00008B947F0010747F4004006434FF49670BA
:103A000009FB00F04FF47A7190FBF1F0401C208428
:103A1000A683208840F00100208026884FF6F530EC
:103A20000640A8886989084306432680A889298911
:103A30000843208107B0BDE8F083000000127A003F
:103A4000005400400058004000440140004801403C
:103A500040420F00A086010041F288310160002140
:103A600081804BF6FF71C1800021018141814FF4BB
:103A70008041818170470146088AC0B2704712B107
:103A800041F0010102E04FF6FE73194001827047D8
:103A90000182704710B500200249087002F0C8FA90
:103AA00010BD00006B0100202DE9F04794B00446E2
:103AB0003022DC4908A8FDF7CDFAA088FFF7B0FB5B
:103AC0008046E088FFF7BCFB81460720D649087096
:103AD000B8F1FF0F40D0B9F1FF0F3DD02088782812
:103AE0003AD86088782837D8207A032834D8607A82
:103AF000012831D8A07A03282ED8E07A01282BD8C3
:103B0000A08948B3608A142826D3E089218A884294
:103B100022DDE189608A001D81421DD9A088022131
:103B200001EB9000618A0844001D218A884213D26B
:103B3000E089218A0844B0F5804F0DD2E089218ABE
:103B40000844A18800EB9100001D4100A0897A2261
:103B50005043B1EB900F03D3012014B0BDE8F087C0
:103B6000E089218A401A80000390E089618A401A26
:103B7000001F80000490E089618A401A800005904F
:103B8000E08980000690E089218A0844800007903F
:103B90008DF82380002515E003A830F82500000AE1
:103BA000052101EB450108AA02EB4101487003A879
:103BB00010F82500062101EB450102EB4101487098
:103BC000681CC5B2052DE7D3607AA17A40EA0110DE
:103BD000C1B28DF84310207A49EAC000C1B28DF815
:103BE0004B1000209149087001208F490870002077
:103BF0008F4908708F49087006F028FE06F022FCF5
:103C0000482006F06BFC8C49087008460078E0B943
:103C100006F092FC06F038FD902006F069FD874919
:103C2000086006F04BFD0020029002AAFF21482008
:103C300006F0FAFC10B99DF8080000E00020804969
:103C4000086006F0FFFB012087E748207D490870E7
:103C50007D48076802F02DFB322007F00BFB02F0D5
:103C60001CFA7449087002206F4908707648006891
:103C7000874203D16F480078AF2801D001206CE75C
:103C800003206949087001211A2015F0D9F938B3C9
:103C90000221192015F0D4F910B30021202015F0CD
:103CA000CFF9E8B1A089401EC0F30721212015F00B
:103CB000C7F9A8B1207B401EC1B2222015F0C0F97F
:103CC00070B1E07A08B1802000E000200146232096
:103CD00015F0B6F920B10221252015F0B1F908B987
:103CE00001203AE7002650E03146302015F0A8F9CF
:103CF00008B9012031E7022E07D30021312015F049
:103D00009FF908B9012028E73DE00EB9208800E0BE
:103D100060883C2101EB00207821B0FBF1FABAF178
:103D2000FF0F01D9FF2000E05046C1B208A8C177BB
:103D300000250DE008AA02EB4502517808AA12F806
:103D4000150015F07DF908B9012006E7681CC5B219
:103D5000182DEFD30120B040C1B2402015F070F90A
:103D600008B90120F9E6C6EBC600384A02EBC001EB
:103D70003822312002F0B0F933480068874201D080
:103D80000120EAE600BF701CC6B2042EACD302F0DC
:103D90004FF90121082002F063F90021072002F009
:103DA00061FA0021052002F05DFA0620019001224F
:103DB00001A90A2002F086FA012225490A2002F010
:103DC0008BF921480068874201D00120C5E608210F
:103DD000302015F035F908B90120BEE601221D4951
:103DE000192002F079F901221B491A2002F074F916
:103DF00001221A49232002F06FF9012218493020CC
:103E000002F06AF910480068874204D1144800782B
:103E100000F0080008B901209FE600200249087060
:103E200000BF9AE69C9101084B0100206B01002025
:103E300068010020430100203901002060010020BA
:103E40006401002038010020300100200090002093
:103E500049010020440100204501002046010020C6
:103E60004701002010B502F023F904460648007807
:103E700008B9402C04D9052004490870002010BD61
:103E8000034804702046FAE72C0100204B01002073
:103E90004A01002000B585B02820ADF80000ADF83B
:103EA00002004FF48060ADF80400FA20ADF806007F
:103EB00000208DF8080001208DF809008DF80A0017
:103EC0008DF80B0040F2B510ADF80C004FF4006017
:103ED000ADF80E004FF40A70ADF810001420ADF8E4
:103EE00012006846FFF7E0FD05B000BD2DE9F04384
:103EF00004460D461E4600211CB112B10EB1402DE4
:103F000002D90020BDE8F08300277AE020784FEA4C
:103F1000A01C2078C0F30118B8F1010F02D1BCF148
:103F2000010F0CD90020DFF8E89089F8000039482B
:103F30000068401CDFF8DC90C9F800005EE02078E3
:103F40000007000B94F8019040EA092094F80290D1
:103F500040EA0903BCF1000F1AD12D48007830B1B6
:103F60002C480068401CDFF8AC90C9F8000003F44E
:103F7000002010B1A3F5801000E01846DFF89890FB
:103F8000C9F800000120DFF8889089F8000034E0CB
:103F90001F48007850B303F4002010B1A3F580103F
:103FA00000E0184642F831001B48006802EBC109E6
:103FB000C9F8040052F83100DFF86090C9F8000039
:103FC00002EBC1004068DFF85890C9F80000481CB7
:103FD000C1B214480068401CDFF84890C9F80000DE
:103FE0000020DFF82C9089F8000006E009480068FE
:103FF000401CDFF82090C9F8000000BF781CC7B251
:10400000E41CAF4201DAB14280DB08467AE70000E7
:104010006B010020540100206C0100205801002099
:104020005C0100204C01002008B50020009068468B
:1040300002F049F89DF8000008BD000038B50120E5
:1040400000901748046800201649087001F0F0FF3E
:10405000FFF7EAFF0121072002F004F90121052002
:1040600002F000F9012269462F2002F02BF901220B
:104070000D492F2002F030F804200C490870084840
:104080000068844204D10848007800F0010008B9B3
:10409000012038BD00200549087000BFF9E7000085
:1040A000300100206B010020480100204B0100205E
:1040B00008B500200090012269462F2002F002F985
:1040C0000021072002F0CEF80021052002F0CAF8F6
:1040D00008BD0146202903DB7E2901DC0020704752
:1040E0006FF02000FBE7000010B501210248FFF748
:1040F000F9FB00F029F810BD0058004070B50446E7
:104100000D4601210A48FFF7E1FB0121094800F0B3
:1041100077F908B1012070BD6006010E2A460448F7
:10412000FFF7ADFC01210348401C00F069F9F2E7FC
:104130000058004001000010024800880148001D9E
:10414000008870471458004000B585B0012109204F
:1041500000F014FC0121880500F0F0FB04A8FFF733
:104160001EFB4FF44060ADF810001C208DF81300CA
:1041700003208DF81200BDF810101548FFF722FB40
:1041800004A91348FFF780FA1248FFF73DFB684681
:10419000FFF762FC104800900020ADF804004BF6D9
:1041A000FF70ADF806000020ADF808004FF4806005
:1041B000ADF80A000001ADF80C0069460548FFF7AC
:1041C000BBFB01210348FFF75DFB05B000BD00000C
:1041D000000C014000580040A086010010B50446C4
:1041E0007F2C0AD800214FF4003000F009F920B9E3
:1041F00000212046FFF782FF00B10EE0FFF79CFF91
:1042000001210848FFF76EFB00214FF4003000F059
:10421000F7F800B101E0002010BDFFF765FF0120B5
:10422000FAE70000005800402DE9F04707468846AD
:1042300014461E4635465CB156B100214FF400309D
:1042400000F0DEF820B900213846FFF757FF00B133
:10425000B6E0FFF771FF41465B48FFF719FC01210B
:104260005A4800F0CDF820B901213846FFF746FF43
:1042700000B1A5E04FF2FF715348FFF7B6FA0121F4
:104280005148FFF7A6FA012D1CD102F081F88146B2
:1042900072B600214C48FFF79CFAFFF74DFF012151
:1042A0004948FFF71FFB484602F006FA012147483C
:1042B0003C3000F0A5F800B182E04348FFF7DBFB9B
:1042C00020706AE0022D2CD102F062F8814672B6AD
:1042D0004FF400613C48FFF788FAFFF72DFF0021FB
:1042E0003948FFF776FA484602F0E6F901213748E7
:1042F00000F086F800B163E002F04AF8814672B639
:1043000001213148FFF7EEFA2F48FFF7B4FB04F81C
:10431000010B2D48FFF7AFFB2070484602F0CCF9A7
:104320003BE0FFF709FF0DE0012128483C3000F099
:1043300067F800B144E02448FFF79DFB04F8010B47
:10434000681E85B2032DEFD80121204800F058F8EF
:1043500000B135E000211C48FFF73BFA1A48FFF78F
:104360008AFB04F8010B0121184800F049F800B15C
:1043700026E002F00DF8814672B601211248FFF7DF
:10438000B1FA1148FFF777FB04F8010B0E48FFF76D
:1043900072FB2070484602F08FF94FF2FF710A4815
:1043A000FFF723FA01210848FFF713FA00214FF421
:1043B000003000F025F800B102E00020BDE8F087F1
:1043C000FFF792FE0120F9E70058004004000010BA
:1043D0002DE9F04106460F46002508240BE0204653
:1043E000FFF7FCFE28B916B1BD4200DA7455681C0F
:1043F000C5B2601CC4B2772CF1D92846BDE8F08163
:1044000070B504460D460C4E09E00C48008800F4D7
:10441000706010B9701E061E01D1012070BD2146CA
:1044200006481438FFF76AFA08B1012000E00020BE
:10443000A842EAD10020F1E7A0860100145800400C
:104440002DE9F04106460F4614461D465CB155B1B4
:1044500000214FF40030FFF7D3FF20B90021304690
:10446000FFF74CFE00B12AE0FFF766FE394616481A
:10447000FFF70EFB01211548FFF7C2FF00B11EE058
:104480000AE014F8011B1048FFF702FB01210F4856
:10449000FFF7B6FF00B112E0281EA5F101018DB2B1
:1044A000EFD101210848FFF71DFA00214FF4003039
:1044B000FFF7A6FF00B102E00020BDE8F081FFF7A2
:1044C00013FE0120F9E7000000580040040000102E
:1044D00000B587B00121092000F050FA01218803BE
:1044E00000F02CFA06A8FFF75AF94FF42040ADF877
:1044F000180018208DF81B0003208DF81A0006A95B
:104500001E48FFF7C1F84FF48040ADF818000420B2
:104510008DF81B0006A91948FFF7B6F8184801F0F6
:104520008FF801A801F0E4F80020ADF804004FF482
:104530008270ADF806000020ADF80800ADF80A0062
:10454000ADF80C004FF40070ADF80E001820ADF877
:1045500010000020ADF812000720ADF8140001A9EA
:10456000074801F0A7F84FF48071054801F0CCF836
:104570000121034801F058F807B000BD000C0140CC
:104580000038004070B50446114D04E0681E051E59
:1045900001D1FF2070BD02210E4801F07DF80028F6
:1045A000F4D021460B4801F083F8094D04E0681E61
:1045B000051E01D1FF20EDE70121064801F06CF84E
:1045C0000028F4D0034801F070F8C0B2E2E7000020
:1045D000A08601000038004070B5002100230F22A2
:1045E000C47804B3154C246804F4E064C4F5E064B2
:1045F000210AC1F10403CA40447804FA03F1847823
:104600001440214309010E4C0678A155047804F0AA
:104610001F050124AC4005786D11AD0005F1E025C2
:10462000C5F8004109E0047804F01F050124AC40FE
:10463000044D0678761145F8264070BD0CED00E07B
:1046400000E400E080E100E002490143024A116019
:10465000704700000000FA050CED00E00149086217
:104660007047000000000E420349096841EA8001DA
:10467000014A116070470000007000400C4800685B
:1046800040F004000A4908600846006820F0030072
:1046900008600846006840F00200086005480068AD
:1046A00040F004000349086000BF00BF30BF7047FE
:1046B0000070004010ED00E010B5024600200D4BE8
:1046C000186820F00300104318600B4B1B6843F080
:1046D0000403094C2360012901D130BF02E040BF2F
:1046E00020BF20BF044B1B6823F00403024C23604F
:1046F00010BD00000070004010ED00E001460020F9
:10470000034A52680A400AB1012000E000207047C5
:10471000007000400149086070470000A0000E4290
:104720000A46C2F3130101700B0A43700B0C83702D
:10473000704701700A124270704701700A0A427095
:104740000A0C82700A0EC2707047000001460020F9
:10475000034A506820F0F0000843506070470000A2
:10476000001002401149096821F480310F4A11609C
:104770001146096821F480211160B0F5803F03D013
:10478000B0F5802F0ED106E00849096841F4803168
:10479000064A116007E00549096841F4A021034A6F
:1047A000116000E000BF00BF704700000010024031
:1047B0000021B0F5007F02D340F2FF1001E0C0F30A
:1047C0000800064A11696FF30801014345F2AA5235
:1047D000024B1A611A4611617047000000700040D8
:1047E00010B5044600200D4908700C49203981F8A5
:1047F0002000012C02D0042C0CD107E00120074935
:10480000087040F24510FFF7D3FF04E0052003498C
:10481000087000E000BF00BF10BD00002010024083
:1048200001460020034A506820F4E06008435060CD
:10483000704700000010024001460020034A506803
:1048400020F4605040EAC100506070470010024000
:1048500002460020044B5868044B184042EA01030A
:104860001843014B5860704700100240FFFFC0F72B
:104870000146034A106A20F44070084310627047F2
:104880000010024001460020034A506820F0030057
:104890000843506070470000001002401348006851
:1048A00040F001001149086008464068104908407E
:1048B0000E494860084600680E4908400B490860E8
:1048C0000846006820F480200860084640680A49CD
:1048D0000840064948604FF46050C8624FF4615088
:1048E00008634FF41F00886070470000001002400A
:1048F00000C0FFF8FFFFF6FEFFFF00F729B1064AF0
:1049000052690243044B5A6104E0034A52698243EC
:10491000014B5A61704700000010024029B1064A5D
:10492000926A0243044B9A6204E0034A926A824309
:10493000014B9A62704700000010024029B1064AFC
:10494000D2690243044BDA6104E0034AD26982432C
:10495000014BDA61704700000010024029B1064A9D
:1049600012690243044B1A6104E0034A126982434C
:10497000014B1A61704700000010024029B1064A3D
:1049800092690243044B9A6104E0034A92698243AC
:10499000014B9A61704700000010024029B1064A9D
:1049A000D2680243044BDA6004E0034AD2688243CF
:1049B000014BDA60704700000010024001490860B6
:1049C00070470000400442420149086070470000FF
:1049D00000004242014908607047000080044242E2
:1049E0000149086670470000000042420149086022
:1049F000704700003C044242F0B5002100BF002295
:104A000000250024384E7668384F06EA0702364EF5
:104A1000766806F4803502F000661EB9022606EBC1
:104A2000924204E04FF4F876C6EB9246721C1DB930
:104A30002F4E02FB06F30BE02B4E766806F4003691
:104A40001EB12C4E02FB06F302E02B4E02FB06F3D6
:104A5000254E766806F00C0121B1042905D00829FD
:104A600008D105E0254E066007E0234E066004E00D
:104A7000036002E0214E066000BF00BF1A4E766858
:104A800006F0F00109091E4E745C0668E6404660B7
:104A9000154E766806F4E061090A194E745C4668A2
:104AA000E6408660104E766806F46051C90A144EDE
:104AB000745C4668E640C6600B4EF66A06F00F016D
:104AC000104E745C4668B6FBF4F64661064EF66A14
:104AD00006F4F871090901F00F060B4F37F816407C
:104AE000B3FBF4F60661F0BD0010024000003C0884
:104AF00000093D000024F4000048E80100127A009B
:104B000040910108509101086091010810B50146DB
:104B10000022002300204A11012A02D1094C2368F7
:104B200006E0022A02D1074C236A01E0054C636AC1
:104B300001F01F02012494401C400CB1012000E050
:104B4000002010BD001002400248406800F00C0038
:104B5000704700000010024038B50020009000248B
:104B6000002500BF3120FFF7D1FF05460098401C0B
:104B700000900098B0F5004F01D0002DF2D0312008
:104B8000FFF7C4FF08B1012400E00024204638BD2F
:104B9000014600BF080900EB8000420001F00F0051
:104BA0001044C0B270470146002204E0501CC2B25B
:104BB000A1F10A00C1B20A29F8DA100741EA10602F
:104BC0007047000070B504460D46164601214FF0AF
:104BD000C050FFF7B3FE01210846FFF7CFFE0120CA
:104BE000FFF73CFD012E01D1FDF738FF0020FFF754
:104BF000FDFE012C28D17DB90120FFF7EBFE20043A
:104C0000FFF7B0FD00BFFFF7A7FF0028FBD04FF470
:104C10004070FFF72DFE0FE00120FFF7DBFE4FF4A1
:104C20004070FFF725FE4FF48030FFF79BFD00BF7B
:104C3000FFF792FF0028FBD04FF4F4702E49086074
:104C40007F202E4908604FE0022C28D185B9012031
:104C5000FFF7C0FE0120FFF7C3FD00BF4120FFF7B3
:104C600055FF0028FAD04FF48070FFF701FE0FE0E7
:104C70000120FFF7AFFE4FF48070FFF7F9FD012030
:104C8000FFF7AEFD00BF4120FFF740FF0028FAD03C
:104C9000FF20194908607F201849086024E0032C90
:104CA00022D16DB90120FFF795FE00BF6120FFF70B
:104CB0002DFF0028FAD04FF40070FFF7D9FD0CE06B
:104CC0004FF40070FFF7D4FD0120FFF783FE00BF13
:104CD0006120FFF71BFF0028FAD04FF49B700649B4
:104CE00008607F20054908600120FFF77FFE00F083
:104CF000E9FA0348006870BD080700200C0700208F
:104D00000428004040F08001054A1140054A12681D
:104D100002F0800262EA0101024A1160704700005D
:104D2000FF1F01000C280040002101098AB242F057
:104D30008002044B1B6803F0800363EA0202014B0C
:104D40001A6070470C280040CA220C4B1A6053228C
:104D50001A6039B1094A1C3A12680243074B1C3BDE
:104D60001A6006E0054A1C3A12688243034B1C3B5A
:104D70001A60FF22014B1A6070470000242800408F
:104D80002DE9F04105460C46002600274DB92F4875
:104D9000006800F0400000B102E00020E07000BFB9
:104DA0000DE02A48006800F0400020B12078FFF7AD
:104DB000EFFE064602E00020E07000BF00BF55B1E4
:104DC00020780004617840EA0120A1780843E17866
:104DD00040EA014611E02078FFF7E5FE4FEA00487F
:104DE0006078FFF7E0FE48EA0028A078FFF7DBFED6
:104DF00048EA0008E07848EA0046CA2013491C3116
:104E000008605320086000F08FF808B9002713E00D
:104E10000F4830400D490839086000F0C1F80B48D0
:104E2000006800F0200030B900F04CFA08B9002703
:104E300002E0012700E00127FF2004491C3108603F
:104E400000F040FA07463846BDE8F08108280040E7
:104E50007F7F7F00CA210A4A1160532111600849EF
:104E60001C39096821F00701054A1C3A11601146F6
:104E7000096801431160FF21014A11607047000079
:104E80002428004001210170817041700021C1700F
:104E90007047000018B5014600230093002200204F
:104EA000CA23194C23605323236049B1164B1C3B82
:104EB0001B6843F48063144C1C3C236001201FE0FA
:104EC000114B1C3B1B6823F480630F4C1C3C23607C
:104ED00000BF0D4B183B1B6803F00402009B5B1CDA
:104EE0000093009BB3F5005F01D0002AF1D0064B80
:104EF000183B1B6803F004030BB9002000E00120FD
:104F0000FF23014C236018BD2428004018B1FF2165
:104F1000044A116004E0CA21024A11605321116061
:104F2000704700002428004030B5002100200023F5
:104F300000221A4C246804F0400464BB174C241D62
:104F4000216800E0521C154C1C342468032C06D345
:104F5000124C1C342468C1F30E05AC4202D1B2F5E8
:104F6000801FEFD10021002280240C4D2C6000BF57
:104F70000A4C246804F04003491CB1F5005F01D0DD
:104F8000002BF5D0054C246804F040040CB101203E
:104F900002E0002000E0012030BD00000C280040AD
:104FA0000348006820F08000014908607047000055
:104FB0000C28004070B506460C4600250E480068D7
:104FC0000E4900EA0105280CE070C5F3042060706A
:104FD00005F03F00A070C5F3423020705EB9E07864
:104FE000FFF7D6FDE0706078FFF7D2FD6070A07823
:104FF000FFF7CEFDA07070BD042800403FFFFF000A
:1050000010B5014600200022054B1B68054C03EA41
:10501000040202EA01030BB1012000E0002010BDF0
:105020000C2800407F1F010010B50146002000221F
:105030000023084C246804EA0103064C241D24685C
:1050400004EA11121BB194B20CB1012000E000205F
:1050500010BD0000082800400020034908680249EC
:1050600024390968704700002828004070B50646BA
:105070000C46002512480068124900EA0105104854
:10508000001D0068C5F305402070C5F30620607060
:1050900005F07F00A07005F48000000CE0705EB9A0
:1050A0002078FFF775FD20706078FFF771FD607064
:1050B000A078FFF76DFDA0700148001D006870BD6D
:1050C000002800407F7F7F0070B504460026002541
:1050D000CA201949086053200860FFF725FF00B96E
:1050E0001DE015481C38006820F0400012491C39AA
:1050F000086008460068216808430F491C390860A9
:105100000D491439A068086008460068A18840EA83
:105110000140094914390860FFF742FF0126FF20CA
:1051200005490860002500E06D1C40F2FF20854223
:10513000FAD3304670BD00002428004010B5064860
:1051400000680649486006480068886000200860DA
:105150000846FFF7B9FF10BD0C0700200811012019
:10516000080700202DE9F04105460C4600260027DF
:105170004DB9607800F01000102804D1607820F05C
:1051800010000A30607005B908E06078FFF700FD94
:105190000646A078FFF7FCFC064600BF55B1E07854
:1051A0000004617840EA0120A1780843217840EAB0
:1051B000413611E0E078FFF7F6FC4FEA00486078EE
:1051C000FFF7F1FC48EA0028A078FFF7ECFC48EA7A
:1051D0000008207848EA4036CA2013490860532066
:1051E0000860FFF7A1FE08B9002714E00F4830401F
:1051F0000D4920390860FFF7D3FE0B481C380068C2
:1052000000F0200030B900F05DF808B9002702E096
:10521000012700E00127FF200349086000F052F851
:1052200007463846BDE8F081242800403FFFFF00D4
:10523000CA21054A116053211160034910390860E1
:10524000FF21116070470000242800400021C17038
:10525000017041708170704710B50FF0ADFC4FF4D4
:105260008060FFF7CDFE20B94FF48040FFF7DCFEF1
:1052700000B30120FFF7F2F90020FFF747FE4FF4DB
:105280008060FFF73FFD4FF48040FFF74DFD0120A8
:10529000FFF73CFE4FF48010FDF756FF074800680B
:1052A000401C0649086001200549087001F086FD90
:1052B00004F0F2FF0FF09AFC10BD0000280100205E
:1052C0002407002008B50022009200200021CA22F5
:1052D000134B1A6053221A60114A183A126822F0CE
:1052E00020020F4B183B1A6000BF0D4A183A126893
:1052F00002F02001009A521C0092009AB2F5004F71
:1053000001D00029F1D0064A183A126802F02002B2
:105310000AB1012000E00020FF22014B1A6008BD05
:105320002428004010B5002000210022094BD86934
:1053300040F08053074CE361074B196841F48073D8
:10534000054C2360034B1A6A1A6223461960014B0D
:10535000D86110BD00100240007000401FB501214F
:105360000520FFF70BFB03A8FEF719FA4FF40070B6
:10537000ADF80C0028208DF80F0003208DF80E00EA
:1053800003A91648FEF780F909210020FEF742F82C
:105390004FF40070FDF7D8FE01A8FDF739FF4FF478
:1053A0000070019000208DF8080008208DF8090099
:1053B00001208DF80A0001A8FDF7E0FE17208DF806
:1053C000000002208DF8010001208DF802008DF808
:1053D00003006846FFF700F91FBD00000008014008
:1053E0001CB56846FDF714FF4FF4007000900020D4
:1053F0008DF806006846FDF7C1FE0021202000F070
:10540000FBF8002002490870024908701CBD00002A
:10541000DD030020DE03002000BFEFF31080014613
:1054200072B6054802780020034B1870084680F3D6
:10543000108800BF10467047DD03002008B5FFF755
:1054400047F86846FEF7ABF94FF48050ADF800001E
:1054500010208DF8030003208DF802004FF48051D6
:105460003E48FEF7AFF969463C48FEF70DF90020CB
:105470003B4908700F2000F085F8112801D0012069
:1054800008BD3F21202000F0B7F80121212000F0C5
:10549000B3F80021222000F0AFF80021232000F013
:1054A000ABF80021242000F0A7F80021252000F00F
:1054B000A3F80021302000F09FF80021342000F0F4
:1054C0009BF828480178322000F096F826480178A9
:1054D000332000F091F84FF4967010F017FB26205F
:1054E00000F050F8312000F04DF82A21302000F073
:1054F00083F84021222000F07FF8202000F042F8BD
:105500003F281CD1212000F03DF8012817D122208E
:1055100000F038F8402812D1302000F033F82A2863
:105520000DD1322000F02EF80E490978884206D1BC
:10553000332000F027F80C490978884201D0012077
:105540009EE7312000F01EF8002008490870012075
:1055500003490870FFF702FF002091E7000C0140AB
:10556000DE030020DF030020E0030020DD03002035
:1055700010B5FFF7F3FE10BD012001490870704718
:10558000DD03002070B504464FF480510848FEF753
:1055900017F944F08000FEF7F5FFFF20FEF7F2FF59
:1055A00005464FF480510248FEF70CF9284670BDBD
:1055B000000C014070B504460D461CB17F2C01D88B
:1055C0007F2D01D9012070BD08480470084805707E
:1055D0000848007838B12146322000F00DF82946FD
:1055E000332000F009F80020EDE70000DF03002081
:1055F000E0030020DE03002070B504460D464FF4A2
:1056000080510848FEF7DCF804F03F00FEF7BAFFCF
:105610002846FEF7B7FF4FF480510248FEF7D2F854
:1056200070BD0000000C014021B1028842F0400230
:10563000028004E002884FF6BF731A400280704770
:1056400010B504461148844208D101218014FFF7A7
:10565000A5F90021A014FFF7A1F916E00C48844237
:1056600008D101210014FFF779F900212014FFF778
:1056700075F90AE00748844207D10121C013FFF7FA
:105680006DF90021E013FFF769F910BD003001400A
:1056900000380040003C00400246002013890B40C7
:1056A0000BB1012000E00020704701468889704757
:1056B0008181704710B50022028802F441520B88A4
:1056C0004C8823438C882343CC8823430C89234371
:1056D0004C8923438C892343CC8923431A4302807A
:1056E000838B4FF2FF74234083830B8A038210BDA8
:1056F0000021018041808180C180018141818181BF
:10570000C1810721018270474FF6FF62914204D0A8
:10571000028842F48072028004E002884FF6FF6340
:105720001A40028070470000B0EE401A61EE201A65
:10573000B0EE610AB5EEC00AF1EE10FA01D8002011
:105740007047DFED0A1AB4EEE10AF1EE10FA02DB5F
:105750004FF6FF70F4E7F6EE001A70EE211AFCEE39
:10576000E11A11EE900A80B2EAE7000000FF7F47DD
:1057700030B50021002300220020394C246844F475
:105780008034374D2C6000BF354C2468C4F340434F
:10579000521C13B9B2F5004FF6D1314C2468C4F352
:1057A00040431BB92F4C304D2C6030BD2F4C20682E
:1057B00020F0070040F001002060294C6468284D6B
:1057C0006C602C4664686C602C46646844F48064A9
:1057D0006C6000202C466068254C2040014641F456
:1057E000803100BF00BF2C466160246844F08074A3
:1057F0002C60002200BF1A4C246804F0007424B905
:105800001446521CB4F5704FF5D3154C246804F0BF
:1058100000741CB9134C144D2C60C6E70020104CCA
:10582000606820F0030040F002006060002200BFCA
:105830000B4C646804F00C04082C04D01446521C71
:10584000B4F5704FF4D3064C646804F00C04082CD3
:1058500003D0044C044D2C60A7E700BFA5E700006F
:105860000010024000127A000000002000200240D8
:10587000FFFFC0F738B50020009000242D490870C4
:10588000FFF70CF84FF48030FEF76CFFFFF764F978
:105890000090009801284BD11020FDF751FD012008
:1058A000FDF788FD0020FEF751FF0020FEF7C4FF42
:1058B0004FF48060FEF7B4FF00214FF48030FEF714
:1058C000C7FF0120FFF78CF800BF3920FFF71EF952
:1058D00020B92046641CB0F5704FF6D33920FFF78D
:1058E00015F940B90120134908700020FFF778F836
:1058F00000F060F938BD0220FEF7C4FF002400BFAD
:10590000FFF722F9082804D02046641CB0F5704F38
:10591000F6D3FFF719F9082808D0022005490870C6
:105920000020FEF7AFFF00F045F9E3E700F042F991
:1059300000BFDFE7E103002010B50120FFF744F8C6
:1059400000BF2120FFF7E2F80028FAD00020FEF780
:1059500099FF00BFFFF7F8F80028FBD1FFF740F8E8
:105960000020FEF7FFFE00BF0448006800F400308E
:105970000028F9D100F01EF910BD0000001002400F
:1059800000200021104AD26942F080520E4BDA61A9
:105990000E4A1168C1F304610D4AD06820F4787092
:1059A000891C29B11F2903D240EA4110D06003E0CD
:1059B00040F47870064AD060034AD26922F08052DF
:1059C000014BDA61704700000010024000180040EF
:1059D0000070004070B5EAB005460C4600202390E8
:1059E00005B10CB96AB070BD26684C212046FBF7A2
:1059F0004AFB266001222946684605F0FDFE8C22FE
:105A0000694647A8FBF726FB00222946684605F0B1
:105A1000F3FE8C22694624A8FBF71CFB9DED250AAA
:105A200084ED060A9DF8901023AA28460EF05AF934
:105A300084ED0C0A9DF88C0084F84000D4ED0C0A2B
:105A4000B0EE600A12F0BAFB84ED090A9DF81D0160
:105A5000022822D39DF8910002281ED39DF88C00C5
:105A600002281AD39DED250AF3EE0E0AB4EEE00AE1
:105A7000F1EE10FA11DB9DED250ADFED1C0AB4EE04
:105A8000E00AF1EE10FA08D894ED090AB5EEC00A62
:105A9000F1EE10FA01DD012000E0002084F8410061
:105AA00004F1280304F1340204F11C01284606F035
:105AB00083F984F84200002084F8430021462846F8
:105AC0000DF0FEFC94ED060A84ED020A94ED0C0A3A
:105AD00084ED050A94ED090A84ED030A012084F897
